{
  "contractName": "LendingStablecoin",
  "abi": [
    {
      "inputs": [
        {
          "internalType": "address",
          "name": "_stablecoinAddress",
          "type": "address"
        }
      ],
      "stateMutability": "nonpayable",
      "type": "constructor"
    },
    {
      "anonymous": false,
      "inputs": [
        {
          "indexed": true,
          "internalType": "uint256",
          "name": "loanId",
          "type": "uint256"
        }
      ],
      "name": "LoanFullyRepaid",
      "type": "event"
    },
    {
      "anonymous": false,
      "inputs": [
        {
          "indexed": true,
          "internalType": "uint256",
          "name": "loanId",
          "type": "uint256"
        },
        {
          "indexed": true,
          "internalType": "address",
          "name": "lender",
          "type": "address"
        }
      ],
      "name": "LoanFunded",
      "type": "event"
    },
    {
      "anonymous": false,
      "inputs": [
        {
          "indexed": true,
          "internalType": "uint256",
          "name": "loanId",
          "type": "uint256"
        },
        {
          "indexed": false,
          "internalType": "uint256",
          "name": "repaymentAmount",
          "type": "uint256"
        }
      ],
      "name": "LoanRepaid",
      "type": "event"
    },
    {
      "anonymous": false,
      "inputs": [
        {
          "indexed": true,
          "internalType": "uint256",
          "name": "loanId",
          "type": "uint256"
        },
        {
          "indexed": true,
          "internalType": "address",
          "name": "borrower",
          "type": "address"
        },
        {
          "indexed": false,
          "internalType": "uint256",
          "name": "principalAmount",
          "type": "uint256"
        },
        {
          "indexed": false,
          "internalType": "uint256",
          "name": "interestRate",
          "type": "uint256"
        },
        {
          "indexed": false,
          "internalType": "uint256",
          "name": "dueDate",
          "type": "uint256"
        }
      ],
      "name": "LoanRequested",
      "type": "event"
    },
    {
      "inputs": [
        {
          "internalType": "uint256",
          "name": "",
          "type": "uint256"
        }
      ],
      "name": "loans",
      "outputs": [
        {
          "internalType": "address",
          "name": "borrower",
          "type": "address"
        },
        {
          "internalType": "address",
          "name": "lender",
          "type": "address"
        },
        {
          "internalType": "uint256",
          "name": "principalAmount",
          "type": "uint256"
        },
        {
          "internalType": "uint256",
          "name": "interestRate",
          "type": "uint256"
        },
        {
          "internalType": "uint256",
          "name": "dueDate",
          "type": "uint256"
        },
        {
          "internalType": "uint256",
          "name": "amountRepaid",
          "type": "uint256"
        },
        {
          "internalType": "bool",
          "name": "isFunded",
          "type": "bool"
        }
      ],
      "stateMutability": "view",
      "type": "function"
    },
    {
      "inputs": [],
      "name": "stablecoin",
      "outputs": [
        {
          "internalType": "contract IERC20",
          "name": "",
          "type": "address"
        }
      ],
      "stateMutability": "view",
      "type": "function"
    },
    {
      "inputs": [
        {
          "internalType": "uint256",
          "name": "_principalAmount",
          "type": "uint256"
        },
        {
          "internalType": "uint256",
          "name": "_interestRate",
          "type": "uint256"
        },
        {
          "internalType": "uint256",
          "name": "_loanDuration",
          "type": "uint256"
        }
      ],
      "name": "requestLoan",
      "outputs": [],
      "stateMutability": "nonpayable",
      "type": "function"
    },
    {
      "inputs": [
        {
          "internalType": "uint256",
          "name": "_loanId",
          "type": "uint256"
        }
      ],
      "name": "fundLoan",
      "outputs": [],
      "stateMutability": "nonpayable",
      "type": "function"
    },
    {
      "inputs": [
        {
          "internalType": "uint256",
          "name": "_loanId",
          "type": "uint256"
        },
        {
          "internalType": "uint256",
          "name": "_repaymentAmount",
          "type": "uint256"
        }
      ],
      "name": "repayLoan",
      "outputs": [],
      "stateMutability": "nonpayable",
      "type": "function"
    },
    {
      "inputs": [
        {
          "internalType": "uint256",
          "name": "_loanId",
          "type": "uint256"
        }
      ],
      "name": "getLoanDetails",
      "outputs": [
        {
          "components": [
            {
              "internalType": "address",
              "name": "borrower",
              "type": "address"
            },
            {
              "internalType": "address",
              "name": "lender",
              "type": "address"
            },
            {
              "internalType": "uint256",
              "name": "principalAmount",
              "type": "uint256"
            },
            {
              "internalType": "uint256",
              "name": "interestRate",
              "type": "uint256"
            },
            {
              "internalType": "uint256",
              "name": "dueDate",
              "type": "uint256"
            },
            {
              "internalType": "uint256",
              "name": "amountRepaid",
              "type": "uint256"
            },
            {
              "internalType": "bool",
              "name": "isFunded",
              "type": "bool"
            }
          ],
          "internalType": "struct LendingStablecoin.Loan",
          "name": "",
          "type": "tuple"
        }
      ],
      "stateMutability": "view",
      "type": "function"
    }
  ],
  "bytecode": "0x60806040523480156200001157600080fd5b506040516200136738038062001367833981810160405281019062000037919062000095565b806000806101000a81548173ffffffffffffffffffffffffffffffffffffffff021916908373ffffffffffffffffffffffffffffffffffffffff160217905550506200010f565b6000815190506200008f81620000f5565b92915050565b600060208284031215620000a857600080fd5b6000620000b8848285016200007e565b91505092915050565b6000620000ce82620000d5565b9050919050565b600073ffffffffffffffffffffffffffffffffffffffff82169050919050565b6200010081620000c1565b81146200010c57600080fd5b50565b611248806200011f6000396000f3fe608060405234801561001057600080fd5b506004361061007f576000357c01000000000000000000000000000000000000000000000000000000009004806366877b8d14610084578063846b909a146100b45780638a700b53146100d0578063e1ec3c68146100ec578063e9cbd82214610122578063edadbbfe14610140575b600080fd5b61009e60048036038101906100999190610b4f565b61015c565b6040516100ab9190610f87565b60405180910390f35b6100ce60048036038101906100c99190610b4f565b6102ad565b005b6100ea60048036038101906100e59190610b78565b6104c3565b005b61010660048036038101906101019190610b4f565b6107ee565b6040516101199796959493929190610e7d565b60405180910390f35b61012a61088d565b6040516101379190610eec565b60405180910390f35b61015a60048036038101906101559190610bb4565b6108b1565b005b610164610a91565b6001828154811061019e577f4e487b7100000000000000000000000000000000000000000000000000000000600052603260045260246000fd5b90600052602060002090600702016040518060e00160405290816000820160009054906101000a900473ffffffffffffffffffffffffffffffffffffffff1673ffffffffffffffffffffffffffffffffffffffff1673ffffffffffffffffffffffffffffffffffffffff1681526020016001820160009054906101000a900473ffffffffffffffffffffffffffffffffffffffff1673ffffffffffffffffffffffffffffffffffffffff1673ffffffffffffffffffffffffffffffffffffffff168152602001600282015481526020016003820154815260200160048201548152602001600582015481526020016006820160009054906101000a900460ff1615151515815250509050919050565b6000600182815481106102e9577f4e487b7100000000000000000000000000000000000000000000000000000000600052603260045260246000fd5b906000526020600020906007020190508060060160009054906101000a900460ff161561034b576040517f08c379a000000000000000000000000000000000000000000000000000000000815260040161034290610f07565b60405180910390fd5b338160010160006101000a81548173ffffffffffffffffffffffffffffffffffffffff021916908373ffffffffffffffffffffffffffffffffffffffff16021790555060018160060160006101000a81548160ff02191690831515021790555060008054906101000a900473ffffffffffffffffffffffffffffffffffffffff1673ffffffffffffffffffffffffffffffffffffffff166323b872dd333084600201546040518463ffffffff167c010000000000000000000000000000000000000000000000000000000002815260040161042893929190610e46565b602060405180830381600087803b15801561044257600080fd5b505af1158015610456573d6000803e3d6000fd5b505050506040513d601f19601f8201168201806040525081019061047a9190610b26565b503373ffffffffffffffffffffffffffffffffffffffff16827f15feab5d3eb17171632762cf769709a315dd15f487a556c0dfb8a259c8f186cc60405160405180910390a35050565b6000600183815481106104ff577f4e487b7100000000000000000000000000000000000000000000000000000000600052603260045260246000fd5b906000526020600020906007020190508060060160009054906101000a900460ff16610560576040517f08c379a000000000000000000000000000000000000000000000000000000000815260040161055790610f47565b60405180910390fd5b80600401544211156105a7576040517f08c379a000000000000000000000000000000000000000000000000000000000815260040161059e90610f27565b60405180910390fd5b8060000160009054906101000a900473ffffffffffffffffffffffffffffffffffffffff1673ffffffffffffffffffffffffffffffffffffffff163373ffffffffffffffffffffffffffffffffffffffff1614610639576040517f08c379a000000000000000000000000000000000000000000000000000000000815260040161063090610f67565b60405180910390fd5b8181600501600082825461064d9190611005565b9250508190555060008054906101000a900473ffffffffffffffffffffffffffffffffffffffff1673ffffffffffffffffffffffffffffffffffffffff166323b872dd338360010160009054906101000a900473ffffffffffffffffffffffffffffffffffffffff16856040518463ffffffff167c01000000000000000000000000000000000000000000000000000000000281526004016106f193929190610e46565b602060405180830381600087803b15801561070b57600080fd5b505af115801561071f573d6000803e3d6000fd5b505050506040513d601f19601f820116820180604052508101906107439190610b26565b50827f040cee90ee4799897c30ca04e5feb6fa43dbba9b6d084b4b257cdafd84ba013e836040516107749190610fa2565b60405180910390a26000606482600301548360020154610794919061108c565b61079e919061105b565b82600201546107ad9190611005565b9050808260050154106107e857837f6a65a58027e68282a85ac65a7afc6580ef3d139c6e6ec12ae8d82de13566e8cc60405160405180910390a25b50505050565b600181815481106107fe57600080fd5b90600052602060002090600702016000915090508060000160009054906101000a900473ffffffffffffffffffffffffffffffffffffffff16908060010160009054906101000a900473ffffffffffffffffffffffffffffffffffffffff16908060020154908060030154908060040154908060050154908060060160009054906101000a900460ff16905087565b60008054906101000a900473ffffffffffffffffffffffffffffffffffffffff1681565b600081426108bf9190611005565b905060016040518060e001604052803373ffffffffffffffffffffffffffffffffffffffff168152602001600073ffffffffffffffffffffffffffffffffffffffff1681526020018681526020018581526020018381526020016000815260200160001515815250908060018154018082558091505060019003906000526020600020906007020160009091909190915060008201518160000160006101000a81548173ffffffffffffffffffffffffffffffffffffffff021916908373ffffffffffffffffffffffffffffffffffffffff16021790555060208201518160010160006101000a81548173ffffffffffffffffffffffffffffffffffffffff021916908373ffffffffffffffffffffffffffffffffffffffff16021790555060408201518160020155606082015181600301556080820151816004015560a0820151816005015560c08201518160060160006101000a81548160ff02191690831515021790555050503373ffffffffffffffffffffffffffffffffffffffff1660018080549050610a5091906110e6565b7ff6cc19e46a340ab5888d736bfc79aef72ae92d12d7b76319d72b0abc170868e6868685604051610a8393929190610fbd565b60405180910390a350505050565b6040518060e00160405280600073ffffffffffffffffffffffffffffffffffffffff168152602001600073ffffffffffffffffffffffffffffffffffffffff168152602001600081526020016000815260200160008152602001600081526020016000151581525090565b600081519050610b0b816111e4565b92915050565b600081359050610b20816111fb565b92915050565b600060208284031215610b3857600080fd5b6000610b4684828501610afc565b91505092915050565b600060208284031215610b6157600080fd5b6000610b6f84828501610b11565b91505092915050565b60008060408385031215610b8b57600080fd5b6000610b9985828601610b11565b9250506020610baa85828601610b11565b9150509250929050565b600080600060608486031215610bc957600080fd5b6000610bd786828701610b11565b9350506020610be886828701610b11565b9250506040610bf986828701610b11565b9150509250925092565b610c0c8161111a565b82525050565b610c1b8161111a565b82525050565b610c2a8161112c565b82525050565b610c398161112c565b82525050565b610c4881611162565b82525050565b6000610c5b601383610ff4565b91507f4c6f616e20616c72656164792066756e646564000000000000000000000000006000830152602082019050919050565b6000610c9b602183610ff4565b91507f4c6f616e2072657061796d656e7420706572696f64206861732065787069726560008301527f64000000000000000000000000000000000000000000000000000000000000006020830152604082019050919050565b6000610d01600f83610ff4565b91507f4c6f616e206e6f742066756e64656400000000000000000000000000000000006000830152602082019050919050565b6000610d41602583610ff4565b91507f4f6e6c792074686520626f72726f7765722063616e206d616b6520726570617960008301527f6d656e74730000000000000000000000000000000000000000000000000000006020830152604082019050919050565b60e082016000820151610db06000850182610c03565b506020820151610dc36020850182610c03565b506040820151610dd66040850182610e28565b506060820151610de96060850182610e28565b506080820151610dfc6080850182610e28565b5060a0820151610e0f60a0850182610e28565b5060c0820151610e2260c0850182610c21565b50505050565b610e3181611158565b82525050565b610e4081611158565b82525050565b6000606082019050610e5b6000830186610c12565b610e686020830185610c12565b610e756040830184610e37565b949350505050565b600060e082019050610e92600083018a610c12565b610e9f6020830189610c12565b610eac6040830188610e37565b610eb96060830187610e37565b610ec66080830186610e37565b610ed360a0830185610e37565b610ee060c0830184610c30565b98975050505050505050565b6000602082019050610f016000830184610c3f565b92915050565b60006020820190508181036000830152610f2081610c4e565b9050919050565b60006020820190508181036000830152610f4081610c8e565b9050919050565b60006020820190508181036000830152610f6081610cf4565b9050919050565b60006020820190508181036000830152610f8081610d34565b9050919050565b600060e082019050610f9c6000830184610d9a565b92915050565b6000602082019050610fb76000830184610e37565b92915050565b6000606082019050610fd26000830186610e37565b610fdf6020830185610e37565b610fec6040830184610e37565b949350505050565b600082825260208201905092915050565b600061101082611158565b915061101b83611158565b9250827fffffffffffffffffffffffffffffffffffffffffffffffffffffffffffffffff038211156110505761104f611186565b5b828201905092915050565b600061106682611158565b915061107183611158565b925082611081576110806111b5565b5b828204905092915050565b600061109782611158565b91506110a283611158565b9250817fffffffffffffffffffffffffffffffffffffffffffffffffffffffffffffffff04831182151516156110db576110da611186565b5b828202905092915050565b60006110f182611158565b91506110fc83611158565b92508282101561110f5761110e611186565b5b828203905092915050565b600061112582611138565b9050919050565b60008115159050919050565b600073ffffffffffffffffffffffffffffffffffffffff82169050919050565b6000819050919050565b600061116d82611174565b9050919050565b600061117f82611138565b9050919050565b7f4e487b7100000000000000000000000000000000000000000000000000000000600052601160045260246000fd5b7f4e487b7100000000000000000000000000000000000000000000000000000000600052601260045260246000fd5b6111ed8161112c565b81146111f857600080fd5b50565b61120481611158565b811461120f57600080fd5b5056fea264697066735822122072809cf56644bcf42b31b147713fbf256938225962c46f3f9dbbf66ec5717b0464736f6c63430008000033",
  "immutableReferences": {},
  "source": "// SPDX-License-Identifier: MIT\npragma solidity ^0.8.0;\n\ninterface IERC20 {\n    function transferFrom(\n        address sender,\n        address recipient,\n        uint256 amount\n    ) external returns (bool);\n    function transfer(\n        address recipient,\n        uint256 amount\n    ) external returns (bool);\n}\n\ncontract LendingStablecoin {\n    // Define a Loan structure with more detailed attributes\n    struct Loan {\n        address borrower;\n        address lender;\n        uint256 principalAmount;\n        uint256 interestRate; // As a percentage, e.g., 5% is represented as 5\n        uint256 dueDate; // Timestamp of when the loan is due\n        uint256 amountRepaid; // Tracks how much has been repaid\n        bool isFunded; // Whether the loan is funded by a lender\n    }\n\n    IERC20 public stablecoin; // Interface for the stablecoin\n    Loan[] public loans; // Dynamic array to store loans\n\n    // Define events for tracking contract activities\n    event LoanRequested(\n        uint256 indexed loanId,\n        address indexed borrower,\n        uint256 principalAmount,\n        uint256 interestRate,\n        uint256 dueDate\n    );\n    event LoanFunded(uint256 indexed loanId, address indexed lender);\n    event LoanRepaid(uint256 indexed loanId, uint256 repaymentAmount);\n    event LoanFullyRepaid(uint256 indexed loanId);\n\n    constructor(address _stablecoinAddress) {\n        stablecoin = IERC20(_stablecoinAddress);\n    }\n\n    // Borrowers can call this function to request a new loan\n    function requestLoan(\n        uint256 _principalAmount,\n        uint256 _interestRate,\n        uint256 _loanDuration\n    ) external {\n        uint256 dueDate = block.timestamp + _loanDuration;\n        loans.push(\n            Loan({\n                borrower: msg.sender,\n                lender: address(0),\n                principalAmount: _principalAmount,\n                interestRate: _interestRate,\n                dueDate: dueDate,\n                amountRepaid: 0,\n                isFunded: false\n            })\n        );\n        emit LoanRequested(\n            loans.length - 1,\n            msg.sender,\n            _principalAmount,\n            _interestRate,\n            dueDate\n        );\n    }\n\n    // Lenders use this function to fund a loan\n    function fundLoan(uint256 _loanId) external {\n        Loan storage loan = loans[_loanId];\n        require(!loan.isFunded, \"Loan already funded\");\n        loan.lender = msg.sender;\n        loan.isFunded = true;\n        stablecoin.transferFrom(\n            msg.sender,\n            address(this),\n            loan.principalAmount\n        );\n        emit LoanFunded(_loanId, msg.sender);\n    }\n\n    // Borrowers call this to make repayments\n    function repayLoan(uint256 _loanId, uint256 _repaymentAmount) external {\n        Loan storage loan = loans[_loanId];\n        require(loan.isFunded, \"Loan not funded\");\n        require(\n            block.timestamp <= loan.dueDate,\n            \"Loan repayment period has expired\"\n        );\n        require(\n            msg.sender == loan.borrower,\n            \"Only the borrower can make repayments\"\n        );\n        loan.amountRepaid += _repaymentAmount;\n        stablecoin.transferFrom(msg.sender, loan.lender, _repaymentAmount);\n        emit LoanRepaid(_loanId, _repaymentAmount);\n\n        // Check if the loan is fully repaid including interest\n        uint256 totalDue = loan.principalAmount +\n            ((loan.principalAmount * loan.interestRate) / 100);\n        if (loan.amountRepaid >= totalDue) {\n            emit LoanFullyRepaid(_loanId);\n        }\n    }\n\n    // Utility function to view a specific loan details\n    function getLoanDetails(\n        uint256 _loanId\n    ) external view returns (Loan memory) {\n        return loans[_loanId];\n    }\n}\n",
  "sourcePath": "/Users/jojo/fintechHackathon/contracts/LendingStableCoin.sol",
  "compiler": {
    "name": "solc",
    "version": "0.8.0+commit.c7dfd78e.Emscripten.clang"
  },
  "schemaVersion": "3.4.16",
  "updatedAt": "2024-03-24T07:25:23.915Z",
  "devdoc": {
    "kind": "dev",
    "methods": {},
    "version": 1
  },
  "userdoc": {
    "kind": "user",
    "methods": {},
    "version": 1
  }
}